:1000000009C016C015C014C013C012C011C010C062
:1000100010C00EC011241FBECFE9CDBF20E0A0E666
:10002000B0E001C01D92A536B207E1F713D030C091
:10003000E7CFEF93EFB7EF930F93E0E600810D4E1C
:1000400002C000810F4F0193E0F70F91EF91EFBFD6
:10005000EF91189583E083BF8FBD80E481BD7894D4
:10006000BC9AC49A88EE93E0EFE5F9E03197F1F796
:1000700000C000000197C1F7C49888EE93E0EFE557
:10008000F9E03197F1F700C000000197C1F7E9CF1F
:04009000F894FFCF12
:00000001FF
